:030000000202EB0E
:0C02EB00787FE4F6D8FD7581B602000EA5
:0802F7007F1E7E1EDEFEDFFA11
:0102FF0022DC
:10027C00CDEFCDCCEECCD3ED9400EC9400400A1233
:0A028C0002F7ED1D70011C80ED2249
:03000300D2AF2257
:0E02C300D28CD2A9758CAB758902438E0122B4
:0D02D10075BB8175BC4975D10A75E88022A6
:0C02DE0075B2057F32DFFEE5B230E4FBB4
:0102EA0022F1
:1002960075F1FD75A46D75E10275E340C285C282F4
:0702A600C283C286C2802260
:10025E00C2EDD2ECE4FF7D64FC30ED08C2EDC2ECE1
:0D026E00AFBE8009ED1D70011CED4C70EC61
:01027B002260
:03000B000201D817
:1001D800C0E0C0D0E8C0E0ECC0E0EDC0E0EFC0E0B7
:1001E800050DE50D7002050C30011DC280C20175B8
:1001F8000F64E512C39432400375120012025E7454
:10020800532512F8EFF6803DE50F6464702CE51273
:10021800C39432400375120012025E74212512F84D
:10022800EFF612025E8F170512D200AF080508EF2D
:10023800C3940A4005D204750800AF0F150FEF707C
:0502480004D280D20188
:10024D00D0E0FFD0E0FDD0E0FCD0E0F8D0D0D0E0A1
:01025D00326E
:10000E0053D9BF43EF02120296D2867FF47E0112BD
:10001E00027CC286D2837FF47E0112027CC283D21E
:10002E00827FF47E0112027CC2821202C31202D1BE
:05003E001202DED28079
:10004300E4F515F51675138012025EEF2516F51605
:10005300E43515F515751432D514FD1513E513D3D1
:10006300940050E4E516AE157807CEC313CE13D82B
:03007300F9F50E8E
:10007600C28075EB1E43D960E4F510C2001200037E
:1000860075EC0120000302016CE512D394005003C5
:1000960002016CC200E512943240037512327452AA
:1000A6002512F8E6F51374202512F8E6F514E51383
:1000B600D395144008E5139514F5158007C3E51488
:1000C6009513F51574842512F8A615E513D3950E28
:1000D6004008E513950EF5138007C3E50E9513F555
:1000E60013E514D3950E4008E514950EF514800714
:1000F600C3E50E9514F514E513C395145003851442
:1001060013E515C394405007E513C3942540040531
:10011600108015E515D3941A500EE513941A50085D
:10012600E510940040021510E515C394235007E529
:1001360013C39416400405118018200315E515D342
:100146009420500EE51394205008E51194004002C7
:100156001511E510D3940A400375100AE511D394DE
:100166000A400375110A200403020086C204C20273
:10017600E510D394015008C203C285C283801DE5F1
:1001860010D394054008D203D285D283800EE511A0
:10019600D394054007D202E4F50CF50D20020302C4
:1001A6000086C3E50D9420E50C944E4004D283806E
:1001B60002C283AE0CAF0DE4FCFD7B407A9CF9F8DD
:0E01C600D31202AD4003020086E4F50CF50DE5
:0401D400020086227D
:1002AD00EB9FF5F0EA9E42F0E99D42F0EC6480C8C8
:0602BD0064809845F02268
:00000001FF
