:060000000200D9D2AF227C
:10000B0002000EC0E0C0F0C083C082C0D075D0002B
:10001B00C000C001C002C003C004C005C006C007B9
:10002B00050AE50A70020509D3E5169400E5159457
:10003B00004008E516151670021515D3E50A9464F1
:10004B00E5099400406BE50E94F4E50D940150081E
:10005B00050EE50E7002050D750900750A00D283B9
:10006B001203448F0FD200D3E50E94F4E50D9401E7
:10007B00501BAE0DAF0E7C007D0A120165ED4C706E
:10008B000CAF0FEF250CF50CE4350BF50BE50EB4AF
:10009B00F421E50DB4011C750D01750EFEAE0BAF11
:1000AB000C7C007D321201658E0B8F0C7511088054
:1000BB0002C283D007D006D005D004D003D002D023
:1000CB0001D000D0D0D082D083D0F0D0E032787F76
:1000DB00E4F6D8FD758120020120020295E493A37A
:1000EB00F8E493A34003F68001F208DFF48029E4DF
:1000FB0093A3F85407240CC8C333C4540F4420C82B
:10010B00834004F456800146F6DFE4800B010204C1
:10011B000810204080900310E47E019360BCA3FF85
:10012B00543F30E509541FFEE493A360010ECF54F6
:10013B00C025E060A840B8E493A3FAE493A3F8E4E5
:10014B0093A3C8C582C8CAC583CAF0A3C8C582C851
:10015B00CAC583CADFE9DEE780BEBC000BBE00293F
:10016B00EF8DF084FFADF022E4CCF875F008EF2FA3
:10017B00FFEE33FEEC33FCEE9DEC984005FCEE9D60
:10018B00FE0FD5F0E9E4CEFD22EDF8F5F0EE84207C
:10019B00D21CFEADF075F008EF2FFFED33FD4007DD
:1001AB00985006D5F0F222C398FD0FD5F0EA22EF56
:1001BB0024FE601F24FE602224FC602524F86028A6
:1001CB0024F0602B24E0602B243F702ED280D2824F
:1001DB00C28622D286D282C28022D286D280C282AC
:1001EB0022D282C286C28022D280C286C28222D210
:1001FB00868002C286C280C28222D286D280D282FE
:10020B002230841CE518B40107D2857513028020B7
:10021B00E5187034C285E5164515702C751301224F
:10022B00208425E518B4010FD28575134075120192
:10023B0075152775161022E518700DC285E5164544
:10024B00157005751304F5122230002CE511B40856
:10025B0027C200AF0FD3EF950CE4950B4017AF0FF0
:10026B00EF950CFFE4950BFED3EF940FEE9400404B
:10027B000405108003E4F510E510D39432400775A4
:10028B00103375180122E4F5182253D9BF43EF023E
:10029B001202F31202D112035A12036A1203777F6E
:1002AB00647E0012032C75EBFF43D96012000375BB
:1002BB00EC0112025475EC0112020C75EC011203E5
:1002CB008475EC0180E9C2867FE87E0312032CD291
:1002DB0086C2807FE87E0312032CD280C2827FE825
:1002EB007E0312032CD2802253F1FD43F11043A461
:1002FB002853A4BA43E13F43E340C285D280D28264
:10030B00D286C283220118000113000215000001DE
:10031B001200020D0000011000020B000001190079
:10032B0000AD07AC06D3ED9400EC9400400A120329
:10033B0090ED1D70F01C80ED22C2EDD2ECE4FF7E3F
:10034B003230ED08C2EDC2ECAFBE8002DEF322D23A
:10035B008CD2A9758CF5758902438E01C2AF2275BB
:10036B00BB8175BC0975D10A75E8802275B2057F12
:10037B00F4DFFEE5B230E4FB22E51360028001E41A
:0E038B00FF1201BA227F027E72DEFEDFFC222C
:00000001FF
