:030000000202E118
:0C02E100787FE4F6D8FD7581B602000EAF
:0802ED007F1E7E1EDEFEDFFA1B
:0102F50022E6
:10025900CDEFCDCCEECCD3ED9400EC9400400A1256
:0A02690002EDED1D70011C80ED2276
:03000300D2AF2257
:0E02B900D28CD2A9758CF0758902438E012279
:0D02C70075BB8175BC0975D10A75E88022F0
:0C02D40075B2057F32DFFEE5B230E4FBBE
:0102E00022FB
:1002730053F1FD43F1EF43A46D43E13F43E340C238
:0A02830085C282C283C286C28022B7
:10028D00C2EDD2ECE4FF7E6430ED08C2EDC2ECAFFE
:05029D00BE8002DEF34B
:0102A2002239
:03000B000201D41B
:1001D400C0E0C0D0E8C0E0EEC0E0EFC0E0050CE550
:1001E4000C7002050B0511E51170020510300113A6
:1001F400C280C201750E64E513C39432404975137D
:10020400008044E50E64647027E513C39432400310
:1002140075130012028D74212513F8EFF60513D21D
:1002240000AF080508EFC3940A4005D2047508001E
:10023400AF0E150EEF7010D280D201D20112028DD2
:1002440074532513F8EFF6D0E0FFD0E0FED0E0F8C9
:05025400D0D0D0E03223
:10000E0053D9BF43EF02120273D2867FF47E0112E0
:10001E000259C286D2837FF47E01120259C283D264
:10002E00827FF47E01120259C2821202B91202C7F5
:03003E001202D4D7
:10004100E4F516F51775148012028DEF2517F517D3
:10005100E43516F516751532D515FD1514E514D3CD
:10006100940050E4E517AE167807CEC313CE13D82B
:03007100F9F50D91
:0E00740075EB1E43D960E4F50FC200120003C5
:1000820075EC01200003020168E513D394005003CC
:10009200020168C200E513943240037513327452B0
:1000A2002513F8E6F51474202513F8E6F515E51482
:1000B200D395154008E5149515F5168007C3E51587
:1000C2009514F51674842513F8A616E514D3950D28
:1000D2004008E514950DF5148007C3E50D9514F558
:1000E20014E515D3950D4008E515950DF515800716
:1000F200C3E50D9515F515E514C395155003851542
:1001020014E516C394D05007E514C3946D4004055A
:100112000F8015E516D3941A500EE514941A500860
:10012200E50F94004002150FE516C394235007E52E
:1001320014C39416400405128018200315E516D343
:100142009420500EE51494205008E51294004002C9
:100152001512E50FD3940A4003750F0AE512D394E2
:100162000A400375120A200403020082C204C2027A
:10017200E50FD394015008C203C285C283801DE5F6
:100182000FD394054008D203D285D283800EE512A4
:10019200D394054007D202E4F50BF50C20020302CA
:1001A2000082C3E50C9420E50B944E4004D2838078
:1001B20002C283AE0BAF0CE4FCFD7B407A9CF9F8E3
:0E01C200D31202A34003020082E4F50BF50CF9
:0401D0000200822285
:1002A300EB9FF5F0EA9E42F0E99D42F0EC6480C8D2
:0602B30064809845F02272
:00000001FF
