:030000000202D425
:0C02D400787FE4F6D8FD7581B602000EBC
:0802E0007F1E7E1EDEFEDFFA28
:0102E80022F3
:10024F00CDEFCDCCEECCD3ED9400EC9400400A1260
:0A025F0002E0ED1D70011C80ED228D
:03000300D2AF2257
:0E02AC00D28CD2A9758CF1758902438E012285
:0D02BA0075BB8175BC0975D10A75E88022FD
:0C02C70075B2057FFADFFEE5B230E4FB03
:0102D3002208
:1002690075F1FD75A46D75E10275E340C285C28221
:07027900C283C286C280228D
:10028000C2EDD2ECE4FF7E6430ED08C2EDC2ECAF0B
:05029000BE8002DEF358
:010295002246
:03000B000201D41B
:1001D400C0E0C0D0E8C0E0EEC0E0EFC0E0050CE550
:1001E4000C7002050B30011DC280C201750E64E55E
:1001F40011C3943240037511001202807453251107
:10020400F8EFF68038E50E64647027E511C3943284
:10021400400375110012028074212511F8EFF605D0
:1002240011D200AF080508EFC3940A4005D2047543
:100234000800AF0E150EEF7004D280D201D0E0FF9B
:0B024400D0E0FED0E0F8D0D0D0E032D7
:10000E0053D9BF43EF021202C7120269D2867FF4A0
:10001E007E0112024FC286D2837FF47E0112024FFE
:10002E00C283D2827FF47E0112024FC2821202ACD0
:03003E001202BAF1
:10004100E4F514F515751280120280EF2515F515EA
:10005100E43514F514751332D513FD1512E512D3D9
:10006100940050E4E515AE147807CEC313CE13D82F
:03007100F9F50D91
:0E00740075EB1E43D960E4F50FC200120003C5
:1000820075EC01200003020168E511D394005003CE
:10009200020168C200E511943240037511327452B4
:1000A2002511F8E6F51274202511F8E6F513E5128C
:1000B200D395134008E5129513F5148007C3E51391
:1000C2009512F51474842511F8A614E512D3950D32
:1000D2004008E512950DF5128007C3E50D9512F55E
:1000E20012E513D3950D4008E513950DF51380071E
:1000F200C3E50D9513F513E512C39513500385134C
:1001020012E514C394245007E512C3941740040562
:100112000F8015E514D3941A500EE512941A500864
:10012200E50F94004002150FE514C394235007E530
:1001320012C39416400405108018200315E514D349
:100142009420500EE51294205008E51094004002CD
:100152001510E50FD3940A4003750F0AE510D394E6
:100162000A400375100A200403020082C204C2027C
:10017200E50FD394015008C203C285C283801DE5F6
:100182000FD394054008D203D285D283800EE510A6
:10019200D394054007D202E4F50BF50C20020302CA
:1001A2000082C3E50C9420E50B944E4004D2838078
:1001B20002C283AE0BAF0CE4FCFD7B407A9CF9F8E3
:0E01C200D31202964003020082E4F50BF50C06
:0401D0000200822285
:10029600EB9FF5F0EA9E42F0E99D42F0EC6480C8DF
:0602A60064809845F0227F
:00000001FF
