:0A00000002009BC286D282D2802249
:10000B0002000EC0E0C0F0C083C082C0D075D0002B
:10001B00C000C001C002C003C004C005C006C007B9
:10002B000509E50970020508D3E5179400E5169458
:10003B00004008E517151770021516D3E513940049
:10004B00E51294004008E513151370021512D3E561
:10005B00099464E5089400400CD283750800750977
:10006B0000D200801030000912039F8F0EC283D282
:10007B0001C283C200D007D006D005D004D003D074
:10008B0002D001D000D0D0D082D083D0F0D0E032DB
:10009B00787FE4F6D8FD7581200200E2020231E49C
:1000AB0093A3F8E493A34003F68001F208DFF480F6
:1000BB0029E493A3F85407240CC8C333C4540F4446
:1000CB0020C8834004F456800146F6DFE4800B0120
:1000DB000204081020408090032CE47E019360BC46
:1000EB00A3FF543F30E509541FFEE493A360010EB8
:1000FB00CF54C025E060A840B8E493A3FAE493A3DF
:10010B00F8E493A3C8C582C8CAC583CAF0A3C8C5FF
:10011B0082C8CAC583CADFE9DEE780BEE4F51CC22C
:10012B0083051B12039FEF250BF50BE4350AF50A2C
:10013B00E4F51B051BE51BB40FF9C2837F017E00A1
:10014B00120387051CE51CC3943240D3AE0AAF0BD8
:10015B007C007D3212018A8E0A8F0BC3E50B9473E0
:10016B00E50A9400500EE50B943CE50A940040041C
:10017B0075100822E4F510751A01F512F51322BC5F
:10018B00000BBE0029EF8DF084FFADF022E4CCF81C
:10019B0075F008EF2FFFEE33FEEC33FCEE9DEC9881
:1001AB004005FCEE9DFE0FD5F0E9E4CEFD22EDF807
:1001BB00F5F0EE8420D21CFEADF075F008EF2FFFAA
:1001CB00ED33FD4007985006D5F0F222C398FD0F92
:1001DB00D5F0EA22EF24FE601F24FE602224FC608F
:1001EB002524F8602824F0602B24E0602B243F703A
:1001FB002ED280D282C28622D286D282C28022D2D4
:10020B0086D280C28222D282C286C28022D280C291
:10021B0086C28222D2868002C286C280C28222D24B
:10022B0086D280D2822253D9BF43EF0212036A12C5
:10023B0003D21203B51203C57F647E00120387122B
:10024B00012712030A75EBFF43D9601203FB75EC10
:10025B0001E5106408600BE5134512701412034C92
:10026B00800F1202C975EC0112028175EC011203A9
:10027B00DF75EC0180D830841CE519B40107D285F9
:10028B007514028020E5197034C285E51745167088
:10029B002C75140122208425E519B4010FD2857524
:1002AB00140275110175164E75172022E519700D84
:1002BB00C285E51745167005751404F5112230013A
:1002CB002CE510B40827C201AF0ED3EF950BE495C4
:1002DB000A4017AF0EEF950BFFE4950AFED3EF9490
:1002EB003CEE94004004050F8003E4F50FE50FD3BB
:1002FB0094284007750F2975190122E4F51922C2BC
:10030B00867FE87E03120387D286C2807FE87E0356
:10031B00120387D280C2827FE87E03120387D280CA
:10032B002201190001140002160000011100020C39
:10033B000000010F00020A0000C101C100011D00F5
:10034B0000E51AB40108120003E4F51A800AE51A55
:10035B00700C1203F4751A0175124E75132022538B
:10036B00F1FD43F11043A42853A4BA43E13F43E307
:10037B0040C285D280D282D286C28322AD07AC0620
:10038B00D3ED9400EC9400400A1203EBED1D70F0DA
:10039B001C80ED22C2EDD2ECE4FF7E3230ED08C2C0
:1003AB00EDC2ECAFBE8002DEF322D28CD2A9758CEB
:1003BB00F5758902438E01C2AF2275BB8175BC09ED
:1003CB0075D10A75E8802275B2067FF4DFFEE5B2BF
:1003DB0030E4FB22E51460028001E4FF1201DF220E
:1003EB007F087E72DEFEDFFC22D286D282D2802292
:0303FB00D2AF225C
:00000001FF
