:0300000002032FC9
:0C032F00787FE4F6D8FD7581E802000E2E
:08033B007F1E7E1EDEFEDFFACC
:010343002297
:1002A100CDEFCDCCEECCD3ED9400EC9400400A120E
:0A02B100033BED1D70011C80ED22DF
:03000300D2AF2257
:1002FE00438E015389F0438902D28CD2A9758C6A40
:04030E00758A6A2260
:0D03220075BB8175BC0975D10A75E8802294
:0F03120053B2F743B2057F32DFFEE5B230E4FBB2
:0103210022B9
:1002BB0075F1FD75A46D75E10275E340C285C282CF
:0702CB00C283C286C280223B
:1002D200C2EDD2ECE4FF7E6430ED08C2EDC2ECAFB9
:0502E200BE8002DEF306
:0102E70022F4
:03000B000201D817
:1001D800C0E0C0F0C083C082C0D0E8C0E0E9C0E0A1
:1001E800EAC0E0EBC0E0ECC0E0EDC0E0EEC0E0EF5C
:1001F800C0E0050CE50C7002050B0511E511700255
:100208000510AE10FFE4FCFD7B507AC3F9F8C31269
:1002180002E8500B751000751100A282B39282306B
:10022800011DC201750E64E513C3943240037513B2
:1002380000C2801202D274852513F8EFF68037E5E4
:100248000EB464130513D200AF080508EFC3940A6F
:100258004005D204750800AF0E150EEF7018D28055
:10026800D201E513C3943240037513001202D2740D
:10027800532513F8EFF6D0E0FFD0E0FED0E0FDD034
:10028800E0FCD0E0FBD0E0FAD0E0F9D0E0F8D0D044
:09029800D082D083D0F0D0E03216
:10000E0053D9BF1202BBD2867F887E131202A1C2C1
:10001E0086D2837F887E131202A1C283D2827F880A
:10002E007E131202A1C2821203121202FE120322C8
:10003E00E4F516F5177514801202D2EF2517F51791
:10004E00E43516F516751532D515FD1514E514D3D0
:10005E00940050E4E517AE167807CEC313CE13D82E
:03006E00F9F50D94
:0E00710075EB1E43D960E4F50FC200120003C8
:10007F0075EC0120000302016CE513D394005003CB
:10008F0002016CC200E5139432400375133274847D
:10009F002513F8E6F51474522513F8E6F515E51453
:1000AF00D395154008E5149515F5168007C3E5158A
:1000BF009514F51674B62513F8A616E514D3950DF9
:1000CF004008E514950DF5148007C3E50D9514F55B
:1000DF0014E515D3950D4008E515950DF515800719
:1000EF00C3E50D9515F515E514C395155003851545
:1000FF001474202513F8A614E516C394405007E591
:10010F0014C394254004050F8015E516D3941A5097
:10011F000EE514941A5008E50F94004002150FE5F0
:10012F0016C394235007E514C39416400405128098
:10013F0018200315E516D39420500EE51494205083
:10014F0008E512940040021512E50FD3940A4003FC
:10015F00750F0AE512D3940A400375120A2004039F
:10016F0002007FC204C202E50FD394015008C203FC
:10017F00C285C283801DE50FD394054008D203D2F8
:10018F0085D283800EE512D394054007D202E4F5A1
:10019F000BF50C20020302007FC3E50C9420E50B46
:1001AF00944E4004D2838002C283AE0BAF0CE4FCAA
:1001BF00FD7B407A9CF9F8D31202E8400302007FDE
:0501CF00E4F50BF50C46
:0401D40002007F2284
:1002E800EB9FF5F0EA9E42F0E99D42F0EC6480C88D
:0602F80064809845F0222D
:00000001FF
