:060000000200BBD2AF229A
:10000B0002000EC0E0C0F0C083C082C0D075D0002B
:10001B00C000C001C002C003C004C005C006C007B9
:10002B000509E50970020508D3E5139400E5129460
:10003B00004008E513151370021512D3E50994E877
:10004B00E5089403404DE50C9464E50B94005008CF
:10005B00050CE50C7002050B750800750900D280C4
:10006B000509E509700205081203068F0DAE0BAFEB
:10007B000C7C007D0A120147ED4C700BF50B750CD7
:10008B0065E50D250AF50AE50A75F00A84F50AD22D
:10009B00008002C280D007D006D005D004D003D098
:1000AB0002D001D000D0D0D082D083D0F0D0E032BB
:1000BB00787FE4F6D8FD758120020102020242E44A
:1000CB0093A3F8E493A34003F68001F208DFF480D6
:1000DB0029E493A3F85407240CC8C333C4540F4426
:1000EB0020C8834004F456800146F6DFE4800B0100
:1000FB000204081020408090031CE47E019360BC36
:10010B00A3FF543F30E509541FFEE493A360010E97
:10011B00CF54C025E060A840B8E493A3FAE493A3BE
:10012B00F8E493A3C8C582C8CAC583CAF0A3C8C5DF
:10013B0082C8CAC583CADFE9DEE780BEBC000BBE3E
:10014B000029EF8DF084FFADF022E4CCF875F008B8
:10015B00EF2FFFEE33FEEC33FCEE9DEC984005FCED
:10016B00EE9DFE0FD5F0E9E4CEFD22EDF8F5F0EEB5
:10017B008420D21CFEADF075F008EF2FFFED33FDA0
:10018B004007985006D5F0F222C398FD0FD5F0EA40
:10019B002230841F5310FDE515B40107D28575106D
:1001AB00088029E515703DC285E51345127035535E
:1001BB0010F72220842EE51345127003751002E50B
:1001CB0015B4010FD285751001750F0175122775C6
:1001DB00131022E515700DE51345127007C28553F8
:1001EB0010FEF50F22EF24FE601F24FE602224FC7C
:1001FB00602524F8602824F0602B24E0602B243F3A
:10020B00702EC283C282D28622C286C282D283223F
:10021B00C286C283D28222C282D286D28322C28378
:10022B00D286D28222C2868002D286D283D2822208
:10023B00C286C283C2822253D9BF43EF021202D2BB
:10024B001202B012033112034112034E7F647E007F
:10025B001202EE75EBFF43D96012000375EC01122D
:10026B00027E75EC0112019C75EC0112035B75ECBF
:10027B000180E930001DD3E50C9464E50B9400403C
:10028B0012C200E50D950AD394014004050E8003BC
:10029B00E4F50EE50ED394054007750E6475150154
:1002AB0022E4F51522D2867FE87E031202EEC28687
:1002BB00D2837FE87E031202EEC283D2827FE87E76
:1002CB00031202EEC2832253F1FD43F11043A46DDE
:1002DB0043E13F43E340C285C283C282C286D280E0
:1002EB00C28022AD07AC06D3ED9400EC9400400A1B
:1002FB00120367ED1D70F01C80ED22C2EDD2ECE411
:10030B00FF7E3230ED08C2EDC2ECAFBE8002DEF3F1
:10031B002201150001100002120000010F00020B58
:10032B00000001160000D28CD2A9758CF5758902DC
:10033B00438E01C2AF2275BB8175BC0975D10A759D
:10034B00E8802275B2057FF4DFFEE5B230E4FB22D4
:10035B00E51060028001E4FF1201F0227F027E7241
:05036B00DEFEDFFC22B4
:00000001FF
