:0F01E800010C00010800010B00010A00010900D1
:0D01F8007F547E03EF1F70011EEF4E70F765
:0102050022D6
:1001BD00AD07AC06D3ED9400EC9400400A1201F8A3
:0801CD00ED1D70011C80ED2204
:1001D500538E7F758900E4F58A758C4CC28DD2A942
:0301E500D28C2297
:0402060053C10F22AF
:1001A400E4F5C975CA1075B10C75B20C75911C755E
:0901B400921CD294D293D2912244
:10012700EF14B40700505490013C75F003A4C58345
:1001370025F0C5837302015102015802015F0201D4
:100147006602016D02017402017BC294D293D292BE
:1001570022C293D294D29222C292D294D29322C232
:1001670094C293D29222C293C294D29222C292D2C2
:1001770094C29322C292C294C29322D294D293D2AF
:020187009222C2
:10018900209006750B01750A0130900EE4F50BE518
:0B0199000AB40106E4F50A75093222E1
:03000B00020003ED
:08000300C2AF75C130D2AF326B
:10000E00E4FB1201A41202067F2C7E011201BD1226
:10001E0001D5D2AF1201897F0A7E001201BD30B721
:10002E001CE509600415098008E4FF120127E4F5B8
:10003E0008E50BB40103750804E4FB803175080272
:10004E00E50BB401077508047B01801BBB0118E5A5
:10005E000960071509750804800DE50AB4010575D8
:10006E0008028003750802E5087003750802AF08E0
:10007E00120127E50BB40110C2917F017E0012011F
:0C008E00BD30B690D291808CD291808859
:01009A002243
:0300000002009B60
:0C009B00787FE4F6D8FD75810C0200E2CD
:1000A70002000EE493A3F8E493A34003F68001F261
:1000B70008DFF48029E493A3F85407240CC8C3335A
:1000C700C4540F4420C8834004F456800146F6DF29
:1000D700E4800B01020408102040809001E8E47ED0
:1000E700019360BCA3FF543F30E509541FFEE4931E
:1000F700A360010ECF54C025E060A840B8E493A3E5
:10010700FAE493A3F8E493A3C8C582C8CAC583CA0F
:10011700F0A3C8C582C8CAC583CADFE9DEE780BEC7
:0101F7000007
:00000001FF
