:1000000002009BC2AF75C130D2AF32020003E4FBE5
:100010001201A41202067F2C7E011201BD1201D52D
:10002000D2AF1201897F0A7E001201BD30B71CE5F4
:1000300009600415098008E4FF120127E4F508E5CA
:100040000BB40103750804E4FB8031750801E50B6E
:10005000B401077508047B01801BBB0118E509602A
:10006000071509750804800DE50AB40105E4F508D3
:100070008003750801E5087003750801AF081201D7
:1000800027E50BB40110C2917F017E001201BD3043
:10009000B690D291808CD291808822787FE4F6D875
:1000A000FD75810C0200E202000EE493A3F8E493D4
:1000B000A34003F68001F208DFF48029E493A3F85B
:1000C0005407240CC8C333C4540F4420C8834004CD
:1000D000F456800146F6DFE4800B0102040810208C
:1000E00040809001E8E47E019360BCA3FF543F3060
:1000F000E509541FFEE493A360010ECF54C025E030
:1001000060A840B8E493A3FAE493A3F8E493A3C8E7
:10011000C582C8CAC583CAF0A3C8C582C8CAC58378
:10012000CADFE9DEE780BEEF14B407005054900147
:100130003C75F003A4C58325F0C583730201510209
:10014000015802015F02016602016D0201740201A1
:100150007BC294D293D29222C293D294D29222C2E0
:1001600092D294D29322C294C293D29222C293C2C8
:1001700094D29222C292D294C29322C292C294C2C8
:100180009322D294D293D29222209006750B0175BD
:100190000A0130900EE4F50BE50AB40106E4F50A15
:1001A00075093222E4F5C975CA1075B10C75B20C27
:1001B00075911C75921CD294D293D29122AD07AC4A
:1001C00006D3ED9400EC9400400A1201F8ED1D7086
:1001D000011C80ED22538E7F758900E4F58A758CB1
:1001E0004CC28DD2A9D28C22010C00010800010B57
:1001F00000010A00010900007F547E03EF1F700117
:0A0200001EEF4E70F72253C10F22CB
:00000001FF
