:0A00000002000E010D0000D2AF2235
:10000B0002009A787FE4F6D8FD7581200200550234
:10001B0000FEE493A3F8E493A34003F68001F208F7
:10002B00DFF48029E493A3F85407240CC8C333C42A
:10003B00540F4420C8834004F456800146F6DFE495
:10004B00800B0102040810204080900003E47E0125
:10005B009360BCA3FF543F30E509541FFEE493A308
:10006B0060010ECF54C025E060A840B8E493A3FA1A
:10007B00E493A3F8E493A3C8C582C8CAC583CAF0A6
:10008B00A3C8C582C8CAC583CADFE9DEE780BEC084
:10009B00E0C0F0C083C082C0D075D000C000C001EA
:1000AB00C002C003C004C005C006C0070509E509AE
:1000BB0070020508D39464E5089400401975080094
:1000CB00750900D2800509E5097002050812019B2C
:1000DB008F0BD2018002C280D007D006D005D0048E
:1000EB00D003D002D001D000D0D0D082D083D0F0BA
:1000FB00D0E03253D9BF43EF02120169120147120C
:10010B0001B11201BF1201CC1201D975EBFF43D91A
:10011B006012000775EC01300110C201E50BD3949E
:10012B00984004050C8003E4F50CE50CD3943240A5
:10013B0007750C64D28380DCC28380D8D2867FF4AF
:10014B007E01120183C286D2837FF47E011201836A
:10015B00C283D2827FF47E01120183C2822253F1C9
:10016B00FD43F1EF43A46D43E13F43E340C285C23E
:10017B0082C283C286C28022AD07AC06D3ED940047
:10018B00EC9400400A1201E5ED1D70F01C80ED228D
:10019B00C2EDD2ECE4FF7E6430ED08C2EDC2ECAFF1
:1001AB00BE8002DEF322D28CD2A9758CF675890241
:1001BB00438E012275BB8175BC0975D10A75E88028
:1001CB002275B2057F32DFFEE5B230E4FB22D2802E
:1001DB00050E12019B8F0AC280227F1E7E1EDEFE41
:0301EB00DFFA2216
:00000001FF
