:09018800010A0001080001090050
:0D016D007F547E03EF1F70011EEF4E70F7F0
:01017A002262
:10014200AD07AC06D3ED9400EC9400400A12016DA9
:08015200ED1D70011C80ED227F
:10015A00538E7F758900E4F58A758C4CC28DD2A9BD
:03016A00D28C2212
:0401920053C10F2224
:10012900E4F5C975CA1075B10C75B20C75911C75D9
:09013900921CD294D293D29122BF
:10010100EF24FE600E14601224027015C294D29383
:10011100D29222C293D294D29222C292D294D293F8
:0801210022D294D293D2922263
:0D017B00209003750901309003E4F509227E
:03000B00020003ED
:08000300C2AF75C130D2AF326B
:10009A00E4FB1201291201927F2C7E011201421205
:1000AA00015AD2AF12017B7F0A7E0012014230B799
:1000BA000BE4FF120101E4F508FB8021750801E554
:1000CA0009B401077508027B018006BB01037508A4
:1000DA0002E5087003750801AF08120101E509B4C9
:1000EA000110C2917F017E0012014230B6B6D29150
:0600FA0080B2D29180AE3D
:0101000022DC
:0300000002000EED
:0C000E00787FE4F6D8FD75810A020055E9
:10001A0002009AE493A3F8E493A34003F68001F262
:10002A0008DFF48029E493A3F85407240CC8C333E7
:10003A00C4540F4420C8834004F456800146F6DFB6
:10004A00E4800B0102040810204080900188E47EBD
:10005A00019360BCA3FF543F30E509541FFEE493AB
:10006A00A360010ECF54C025E060A840B8E493A372
:10007A00FAE493A3F8E493A3C8C582C8CAC583CA9D
:10008A00F0A3C8C582C8CAC583CADFE9DEE780BE55
:01019100006D
:00000001FF
