:09040D00010E00010C00010D00BC
:0D03FF007F547E03EF1F70011EEF4E70F75C
:01040C0022CD
:10039B00AD07AC06D3ED9400EC9400400A1203FFBA
:0803AB00ED1D70011C80ED2224
:1003DC00538E7F758900E4F58A758C4CC28DD2A939
:0303EC00D28C228E
:04041C0053C10F2297
:10038200E4F5C975CA1075B10C75B20C75911C757E
:09039200921CD294D293D2CC2229
:1002F900EF24FE600E14601224027015C294D2938A
:10030900D29222C293D294D29222C292D294D293FE
:0803190022D294D293D2922269
:1003B3001203EFBF0103750D011203EFEF64016038
:0503C30003E4F50D222A
:03000B00020003ED
:08000300C2AF75C130D2AF326B
:10009A00E4F50812038212041C7F2C7E0112039BD2
:1000AA001203211203DCD2AF1203B37F0A7E0012BD
:1000BA00039B30900CE4FF1202F9E4F50CF508807A
:1000CA0024750C02E50DB40108E4F50C75080180ED
:1000DA0008E508B40103E4F50CE50C7003750C029D
:1000EA00AF0C1202F9E50DB40110C2CC7F017E00FB
:0E00FA0012039B3095B2D2CC80AED2CC80AA3D
:0101080022D4
:1003C800D3EF9400EE9400400A000000EF1F700184
:0403D8001E80ED2274
:10034800D2B27F057E001203C8D2B37F057E0012A9
:0E03580003C8C2B27F057E001203C8C2B322E2
:10036600C2B27F057E001203C8D2B37F057E00129B
:0C03760003C8D2B27F057E001203C8222B
:02017800AD07D1
:10017A007C08C2B37F027E001203C8ED30E704D2C6
:10018A00B28002C2B2ED25E0FD7F037E001203C8F1
:10019A00D2B37F057E001203C8DCD7C2B37F047EC8
:1001AA00001203C8D2B27F017E001203C8D2B37F05
:1001BA00057E001203C8E4FD7CC820B2047D0180DC
:1001CA00097FFA7E001203C8DCF0C2B37F037E0007
:0701DA001203C8D2B2AF0509
:0101E10022FB
:02010900AD0740
:10010B00E4FCC2B37F04FE1203C8D2B27F017E00AF
:10011B001203C87B08D2B37F027E001203C830B231
:10012B0008EC25E04401FC8006EC25E054FEFC7F46
:10013B00037E001203C8C2B37F057E001203C8DB27
:10014B00D4BD010BC2B27F027E001203C88009D25C
:10015B00B27F027E001203C8D2B37F057E0012036A
:0C016B00C8C2B37F037E001203C8AF04BB
:010177002265
:05041700D2B2D2B322B5
:10023F00EBD394305006EBC3941450027B1E120381
:10024F00487F441201787F221201787F30120178A3
:10025F00AF031201787F301201787F301201787F5F
:10026F00301201787F301201787F301201787F30A1
:06027F0012017812036673
:010285002256
:10028600E4F50AF50B1203487F441201787F011248
:1002960001781203661203487F451201787F011226
:1002A6000109EF750B00F50AE4FF120109EF250BB2
:0E02B600F50BE4350AF50A120366AE0AAF0B2B
:0102C4002217
:1001E2001203487F441201787F0B120178120366D2
:1001F2001203487F451201787F01120109780FA688
:10020200077F0112010908A6077F0112010908A64A
:10021200077F0112010908A6077F0112010908A63A
:10022200077F0112010908A6077F0112010908A62A
:0D02320007E4FF12010908A6071203662267
:1002C5001203487F441201787FA812017812036651
:1002D5001203487F451201787F01120109AA07E43C
:1002E500FF120109AD07120366EA24A86D6002E456
:0302F500FAAF025B
:0102F80022E3
:10032100120417E4F509120286BECB0ABF72071246
:10033100023F1201E2227F2C7E0112039B0509E597
:0603410009C3940340E033
:010347002293
:0F03EF00E4F91202C5A907E930E1027901AF0173
:0103FE0022DC
:0300000002000EED
:0C000E00787FE4F6D8FD758116020055DD
:10001A0002009AE493A3F8E493A34003F68001F262
:10002A0008DFF48029E493A3F85407240CC8C333E7
:10003A00C4540F4420C8834004F456800146F6DFB6
:10004A00E4800B010204081020408090040DE47E35
:10005A00019360BCA3FF543F30E509541FFEE493AB
:10006A00A360010ECF54C025E060A840B8E493A372
:10007A00FAE493A3F8E493A3C8C582C8CAC583CA9D
:10008A00F0A3C8C582C8CAC583CADFE9DEE780BE55
:0104160000E5
:00000001FF
